S01200007061747465726E2D31312E7372656385
S11300009EC00000A6C00000A4C00000A2C0000062
S1130010A0C000009EC000009CC000009AC0000068
S113002098C0000096C0000094C0000092C0000078
S113003090C000008EC000008CC000008AC0000088
S113004088C0000086C0000084C0000082C0000098
S113005080C000007EC000007CC000007AC00000A8
S113006078C0000076C0000074C0000072C00000B8
S113007070C000006EC000006CC000006AC00000C8
S113008068C0000066C0000064C0000062C00000D8
S113009060C000005EC000005CC000005AC00000E8
S11300A058C0000056C0000054C0000052C00000F8
S11300B050C000004EC000004CC000004AC0000008
S11300C048C0000046C0000044C0000042C0000018
S11300D040C000003EC000003CC000003AC0000028
S11300E038C0000008000000BE922449123EABAAAA
S11300F0AA2ABECDCCCC4C3E00000080BEABAAAA3E
S1130100AA3E00000000BF000000803F0000000085
S113011000084178D3BB4387D1133D190E3CC3BDBE
S11301204282AD2B3E68EC8276BED98FE1A93E4C6B
S113013080EFFFBE01C4FF7F3F00000000001124D8
S11301401FBECFEFD1E2DEBFCDBF00E00CBF02D0B7
S11301509CC256CF11B88FEF84B985B980B9C0E07D
S113016060B170E080E090E0BCD049D12BE930E28E
S11301704AE95EE31DD084D081E090E00C2E02C0F9
S1130180880F991F0A94E2F785B9CF5F80E090E069
S1130190861797075CF42FE33DE043E0215030409D
S11301A04040E1F700C000000196F2CF15B8D8CF67
S11301B00CD0EBC0E3D040F0DAD030F021F45F3F54
S11301C019F0CCC0511115C1CFC0F0D098F39923C8
S11301D0C9F35523B1F3951B550BBB27AA27621707
S11301E07307840738F09F5F5F4F220F331F441F4C
S11301F0AA1FA9F333D00E2E3AF0E0E830D0915084
S11302005040E695001CCAF729D0FE2F27D0660F70
S1130210771F881FBB1F261737074807AB07B0E8AF
S113022009F0BB0B802DBF01FF2793585F4F2AF0C5
S11302309E3F510568F092C0DCC05F3FECF3983EEE
S1130240DCF3869577956795B795F7959F5FC9F722
S1130250880F911D9695879597F90895E1E0660FAB
S1130260771F881FBB1F621773078407BA0720F024
S1130270621B730B840BBA0BEE1F88F7E09508958D
S113028004D06894B111B5C0089598D088F09F57F0
S113029090F0B92F9927B751A0F0D1F0660F771FCE
S11302A0881F991F1AF0BA95C9F712C0B13081F0AE
S11302B09FD0B1E008959CC0672F782F8827B85F3E
S11302C039F0B93FCCF3869577956795B395D9F70F
S11302D03EF490958095709561957F4F8F4F9F4F19
S11302E00895E89409C097FB3EF490958095709525
S11302F061957F4F8F4F9F4F9923A9F0F92F96E96E
S1130300BB279395F695879577956795B795F111E2
S1130310F8CFFAF4BB0F11F460FF1BC06F5F7F4F7F
S11303208F4F9F4F16C0882311F096E911C0772391
S113033021F09EE8872F762F05C0662371F096E89A
S1130340862F70E060E02AF09A95660F771F881F69
S1130350DAF7880F9695879597F9089597F99F6727
S113036080E870E060E008959FEF80EC0895002439
S11303700A941616170618060906089500240A9406
S113038012161306140605060895092E0394000C8C
S113039011F4882352F0BB0F40F4BF2B11F460FF1B
S11303A004C06F5F7F4F8F4F9F4F089557FD905844
S11303B0440F551F59F05F3F71F04795880F97FB25
S11303C0991F61F09F3F79F08795089512161306DF
S11303D01406551FF2CF4695F1DF08C0161617060E
S11303E01806991FF1CF8695710561050894089543
S11303F0E894BB2766277727CB0197F908950AD09D
S113040029ED3BE54EED5EE345C00EF00BC1ACCFEC
S11304106894A4CFD3DFC8F39923D1F3C6F3DF9351
S1130420CF931F930F93FF92C92FDD2788232AF0C0
S11304302197660F771F881FDAF720E030E040E845
S11304405FEB9FE3883920F0803E30F021968F7770
S113045085D0E4EEF0E003C081D0E1E1F1E0F0D03A
S11304608B01BE01EC01FB2E6F5771097595771F47
S1130470880B990B38DF28E132E741E35FE316D0BC
S1130480AF2D9801AE01FF900F911F91CF91DF9195
S113049076D07BCF0BD079CF6ADF28F06FDF18F0EE
S11304A0952309F05BCF60CF1124A3CF7FDFA0F3A6
S11304B0959FD1F3950F50E0551F629FF001729FF5
S11304C0BB27F00DB11D639FAA27F00DB11DAA1F14
S11304D0649F6627B00DA11D661F829F2227B00D61
S11304E0A11D621F739FB00DA11D621F839FA00DEC
S11304F0611D221F749F3327A00D611D231F849F3C
S1130500600D211D822F762F6A2F11249F57504092
S11305108AF0E1F088234AF0EE0FFF1FBB1F661F2D
S1130520771F881F91505040A9F79E3F510570F0E6
S113053015CF5FCF5F3FECF3983EDCF3869577955C
S11305406795B795F795E7959F5FC1F7FE2B880FE1
S1130550911D9695879597F908955058BB27AA271A
S11305600ED013CF04DF30F009DF20F031F49F3FC9
S113057011F41EF4F9CE0EF4E095E7FBEFCEE92F6B
S113058015DF80F3BA17620773078407950718F01D
S113059071F49EF52DCF0EF4E0950B2EBA2FA02DFD
S11305A00B01B90190010C01CA01A0011124FF271C
S11305B0591B99F0593F50F4503E68F11A16F04017
S11305C0A22F232F342F4427585FF3CF4695379516
S11305D02795A795F0405395C9F77EF41F16BA0BDB
S11305E0620B730B840BBAF09150A1F0FF0FBB1F89
S11305F0661F771F881FC2F70EC0BA0F621F731FD2
S1130600841F48F4879577956795B795F7959E3F2E
S113061008F0B3CF9395880F08F09927EE0F9795BC
S1130620879508959F3F31F0915020F487957795F1
S11306306795B795880F911D9695879597F90895B5
S1130640DF93CF931F930F93FF92EF92DF927B017F
S11306508C01689405C0DA2EEF0128DFFE01E894CE
S1130660A5912591359145915591AEF3EF0187DF21
S1130670FE019701A801DA9479F7DF90EF90FF90DB
S11106800F911F91CF91DF910895F894FFCF51
S9030000FC
