:100000000C942A000C9434000C9434000C943400AA
:100010000C9434000C9434000C9434000C94340090
:100020000C9434000C9434000C9434000C94340080
:100030000C9434000C9434000C9434000C94340070
:100040000C9434000C9434000C9434000C94340060
:100050000C94340011241FBECFE5D4E0DEBFCDBF29
:100060000E9436000C9456000C9400008FEF84BB65
:1000700080E487BB8DB985B3853529F085B38A3A8D
:1000800021F481E003C081E001C080E0811115BA54
:10009000779BFECF3FB125B381E090E002C0880F8F
:1000A000991F3A95E2F7822B85BBE5CFF894FFCFF5
:00000001FF
