S01600007370692D74657374696E672D73312E73726563C6
S11300000C942A000C9434000C9434000C943400A6
S11300100C9434000C9434000C9434000C9434008C
S11300200C9434000C9434000C9434000C9434007C
S11300300C9434000C9434000C9434000C9434006C
S11300400C9434000C9434000C9434000C9434005C
S11300500C94340011241FBECFE5D4E0DEBFCDBF25
S11300600E9455000C9462000C94000081E085BB52
S113007020E030E028303105BCF445B381E090E065
S1130080022E02C0880F991F0A94E2F7842B85BBC5
S11300904FE986E891E0415080409040E1F700C08C
S11300A000002F5F3F4FE6CF08958FEF84BB80E4BD
S11300B087BB8DB9779BFECF8FB18134D9F70E946E
S10B00C03600F8CFF894FFCFDD
S9030000FC
