S01A00007370692D74657374696E672D6D61737465722E73726563DA
S11300000C942A000C9434000C9434000C943400A6
S11300100C9434000C9434000C9434000C9434008C
S11300200C9434000C9434000C9434000C9434007C
S11300300C9434000C9434000C9434000C9434006C
S11300400C9434000C9434000C9434000C9434005C
S11300500C94340011241FBECFE5D4E0DEBFCDBF25
S11300600E9436000C943F000C94000080EB87BB88
S113007081E58DB981E48FB9779BFECFFBCFF894EE
S1050080FFCFAC
S9030000FC
