:1000000012C019C018C017C016C015C014C013C044
:1000100012C011C010C00FC00EC00DC00CC00BC06C
:100020000AC009C008C011241FBECFE5D4E0DEBF5E
:10003000CDBF02D028C0E4CF8FEF81BB81B384BB9A
:100040008CE287BB81E58DB980E090E004C0C901F6
:1000500002C080E090E09C012F5F3F4FA9018FB963
:100060008FB185BB779BFECF8FB182BB6FE38DE0F5
:1000700093E0615080409040E1F700C000004930BB
:0A00800051053CF7E4CFF894FFCFE0
:00000001FF
