:100000000C942A000C9434000C9434000C943400AA
:100010000C9434000C9434000C9434000C94340090
:100020000C9434000C9434000C9434000C94340080
:100030000C9434000C9434000C9434000C94340070
:100040000C9434000C9434000C9434000C94340060
:100050000C94340011241FBECFE5D4E0DEBFCDBF29
:100060000E9436000C9444000C94000087EA87BB81
:100070008FEF84BB88B3876088BB81E58DB9779BA0
:0C008000FECF8FB185BBFBCFF894FFCF03
:00000001FF
