S01700004763634170706C69636174696F6E312E737265635B
S113000071C0000086C0000084C0000082C00000EF
S113001080C000007EC000007CC000007AC00000E8
S113002078C0000076C0000074C0000072C00000F8
S113003070C000006EC000006CC000006AC0000008
S113004068C0000066C0000064C0000062C0000018
S113005060C000005EC000005CC000005AC0000028
S113006058C0000056C0000054C0000052C0000038
S113007050C000004EC000004CC000004AC0000048
S113008048C0000046C0000044C0000042C0000058
S113009040C000003EC000003CC000003AC0000068
S11300A038C0000036C0000034C0000032C0000078
S11300B030C000002EC000002CC000002AC0000088
S11300C028C0000026C0000024C0000022C0000098
S11300D020C000001EC000001CC000001AC00000A8
S11300E018C0000011241FBECFEFD1E2DEBFCDBF88
S11300F000E00CBF12E0A0E0B2E0ECE0F2E000E0CF
S11301000BBF02C007900D92A432B107D9F73FD0BC
S11301107BC076CF85B982B18E7F82B982B18D7F63
S113012082B982B1846082B983EC99E00197F1F7D6
S113013000C0000082B18B7F82B9089585B982B175
S1130140816082B982B18D7F82B982B1846082B9C3
S113015083EC99E00197F1F700C0000082B18B7F36
S113016082B908950F931F93CF93DF938C01C0E05E
S1130170D0E0F801EC0FFD1F8081882319F0DEDF49
S11301802196F7CFDF91CF911F910F9108958FEFB3
S113019084B987E081B983EC99E00197F1F700C055
S11301A000008CE0B7DF83EC99E00197F1F700C021
S11301B0000080E092E0D6DF87EA91E60197F1F74C
S11301C000C0000080E0A6DF8CE7B8DF80ECA2DF8F
S11301D087EA91E60197F1F700C000008CE19ADF0D
S11301E08CE198DF83E192E0BDDF87EA91E6019735
S11301F0F1F700C0000081E08DDF83EC99E0019706
S10F0200F1F700C00000C3CFF894FFCF5A
S113020C6A61696D696E5F5F63686F6B6861776162
S113021C6C61002048656C6C6F2C20576F726C6499
S107022C212D00007C
S9030000FC
