:100000000C942A000C9434000C9434000C943400AA
:100010000C9434000C9434000C9434000C94340090
:100020000C9434000C9434000C9434000C94340080
:100030000C9434000C9434000C9434000C94340070
:100040000C9434000C9434000C9434000C94340060
:100050000C94340011241FBECFE5D8E0DEBFCDBF25
:100060000E9441000C944B000C94000088E382BF76
:1000700081E083BF08B600FEFDCF13BE81E088BFDC
:10008000089587B3886087BB98B388E0892788BBC9
:0A0090000E943600F9CFF894FFCF6C
:00000001FF
