:100000000C942A000C9434000C9434000C943400AA
:100010000C9434000C9434000C9434000C94340090
:100020000C9434000C9434000C9434000C94340080
:100030000C9434000C9434000C9434000C94340070
:100040000C9434000C9434000C9434000C94340060
:100050000C94340011241FBECFE5D4E0DEBFCDBF29
:100060000E9449000C946B000C94000082E680B959
:1000700084E086BF11B8089584EA86BF06B607FEFD
:10008000FDCF089583B984E886BF06B607FEFDCF8D
:1000900008958FEF8ABB0E9436000E943C0080E4E6
:1000A0000E94420085E50E9442002FE986E891E027
:1000B000215080409040E1F700C000008AEA0E9491
:1000C00042002FE986E891E0215080409040E1F71E
:0A00D00000C00000E7CFF894FFCF56
:00000001FF
