S024000074696D65722D6E6F726D616C6D6F64652D7072657363616C6C696E672E73726563C3
S11300000C942A000C9434000C9434000C943400A6
S11300100C9434000C9434000C9434000C9434008C
S11300200C9434000C9434000C9434000C9434007C
S11300300C9434000C9434000C9434000C9434006C
S11300400C9434000C9434000C9434000C9434005C
S11300500C94340011241FBECFE5D8E0DEBFCDBF21
S11300600E943F000C9449000C94000082E083BF7E
S113007080EC82BF88B713BE81E088BF089587B340
S1130080886087BB98B388E0892788BB0E943600C4
S1090090F9CFF894FFCF44
S9030000FC
