:100000000C942A000C9434000C9434000C943400AA
:100010000C9434000C9434000C9434000C94340090
:100020000C9434000C9434000C9434000C9445006F
:100030000C9434000C9434000C9434000C94340070
:100040000C9434000C9434000C9434000C94340060
:100050000C94340011241FBECFE5D8E0DEBFCDBF25
:100060000E9436000C9456000C94000087B3806206
:1000700087BB89E182BF81E083BF89BF789414BACE
:100080008FEF81BB83B382BBFDCF1F920F920FB660
:100090000F9211248F9389E182BF88B3809588BB2A
:1000A0008F910F900FBE0F901F901895F894FFCF6F
:00000001FF
