S01D000061746D65676131362D5350492D6D756C74692D53322E737265630E
S11300000C942A000C9434000C9434000C943400A6
S11300100C9434000C9434000C9434000C9434008C
S11300200C9434000C9434000C9434000C9434007C
S11300300C9434000C9434000C9434000C9434006C
S11300400C9434000C9434000C9434000C9434005C
S11300500C94340011241FBECFE5D4E0DEBFCDBF25
S11300600E9436000C9440000C9400008FEF84BB77
S113007080E487BB8DB9779BFECF8FB185BBFBCF67
S1070080F894FFCF1E
S9030000FC
